:100000000C9438000C9421010C9421010C942101D2
:100010000C9421010C9421010C9421010C942101D8
:100020000C9421010C9421010C9421010C942101C8
:100030000C9421010C9421010C9421010C942101B8
:100040000C9421010C9421010C9421010C942101A8
:100050000C9421010C9421010C9421010C94210198
:100060000C9421010C9421010100011000025000A8
:1000700011241FBECFEFD8E0DEBFCDBFE8E6F0E031
:1000800040E017C0B591A59135912591059107FDE7
:100090000CC095918591EF01F92FE82F05900D92F5
:1000A000A217B307D9F7FE0104C01D92A217B30728
:1000B000E1F7EF36F40731F70E9462000C94060175
:0400C000F894FFCFE2
:1000C4000E941101C12CD12C7601C0E00F2EF8EE54
:1000D4008F2EF3E09F2EA12CB12CF02D19E2D4E643
:1000E400C0FE04C08C2F0E94F00003C08C2F0E941D
:1000F400BE008FE99FE00197F1F700C000009FEF79
:10010400C91AD90AE90AF90AC701B601A501940175
:100114000E94D900672B682B692B11F781E08C0FA3
:10012400819FC12D1124C295CF70CD9F80191124B8
:04013400C82FD6CF2B
:10013800A1E21A2EAA1BBB1BFD010DC0AA1FBB1FE3
:10014800EE1FFF1FA217B307E407F50720F0A21B55
:10015800B30BE40BF50B661F771F881F991F1A94C2
:1001680069F760957095809590959B01AC01BD01EC
:04017800CF01089516
:10017C002A989DEC899FE12D1124E695E695E6954C
:10018C00E99F812D1124869586958695880F982F49
:10019C00990F990F890FE81BF0E0E050FF4F808119
:0601AC008BB9299A0895A9
:1001B200052E97FB1EF400940E94190157FD07D0EB
:1001C2000E949C0007FC03D04EF40C941901509538
:0E01D2004095309521953F4F4F4F5F4F089558
:1001E00029989DEC899F912D112496959695969529
:1001F000990F292F220F220F920F891BE82FF0E071
:0C020000E050FF4F80818BB92A9A0895CE
:10020C00EC010E9426010E942501CE010E942701CB
:06021C00CE010E94230147
:100222008FEF8AB91BB8229A219A2A9829980895A1
:1002320090958095709561957F4F8F4F9F4F089550
:040242000C94000018
:040246000E946000B2
:02024A00089515
:02024C00089513
:02024E00089511
:100250003F065B4F666D7D077F6F777C395E7971F6
:00000001FF
